:020000040800F2
:100000008814002045010008470F0008310E000841
:10001000430F000807020008BD2900080000000087
:100020000000000000000000000000008D1B000820
:10003000290A00080000000089150008ED240008C6
:100040005F0100085F0100085F0100085F01000810
:100050005F0100085F0100085F0100085F01000800
:100060005F0100085D0A00085F0100085F010008E9
:100070005F0100085F0100085F0100085F010008E0
:100080005F0100085F0100085F0100085F010008D0
:10009000912900085F0100085F0100085F01000866
:1000A0005F0100085F0100085F0100085F010008B0
:1000B0005F0100085F0100085F0100085F010008A0
:1000C0005F0100085F0100085F0100085F01000890
:1000D0005F0100085F0100085F0100085F01000880
:1000E0005F0100085F0100081D2700085F0100088C
:1000F0005F0100085F0100085F0100085F01000860
:100100005F0100085F0100085F0100085F0100084F
:100110005F0100085F0100085F0100085F0100083F
:100120005F0100085F0100085F0100085F0100082F
:10013000DFF80CD000F02AF8004800470D2D000829
:10014000881400200648804706480047FEE7FEE77F
:10015000FEE7FEE7FEE7FEE7FEE7FEE7FEE7FEE777
:100160002125000831010008D2B201E000F8012B7E
:10017000491EFBD270470022F6E710B513460A4627
:1001800004461946FFF7F0FF204610BD064C074D08
:1001900006E0E06840F0010394E807009847103457
:1001A000AC42F6D3FFF7C8FF842E0008A42E000847
:1001B00070B58C1810F8015B15F0070301D110F829
:1001C000013B2A1106D110F8012B03E010F8016B56
:1001D00001F8016B5B1EF9D12B0705D40023521ED9
:1001E0000DD401F8013BFAE710F8013BCB1A921C41
:1001F00003E013F8015B01F8015B521EF9D5A1423F
:10020000D8D3002070BD00BFFEE70146CAB20B1272
:1002100043EA0220704770B505460C46402C0CDAC4
:100220002246C021284602F0CBFB2146012001F0E6
:1002300061FD012001F08CFD01E0002070BD012076
:10024000FCE7000008B50020009022E197480088F4
:1002500000F00F00964908700846007800287CD10D
:1002600094480068944908800846008800F03000EF
:10027000924908809048008800F440508E490880D8
:100280008C4909684BF6BF7201EA020080F4005005
:1002900080F0200040F4004141F08001854A116067
:1002A0008248008800F0100090BB1046006848F6B5
:1002B0000F7108401146086000F0ECFD7D490968A7
:1002C0004BF6BF7201EA02007B49098801F48051B4
:1002D00009B180F480507849098801F4005109B1CE
:1002E00080F400507549098801F0100109B180F0CF
:1002F00010007249098801F0200109B180F0200046
:1003000081B241F4004141F080016A4A116008BDA8
:10031000FFE76848006880B20090BDF8000000F474
:100320000060B0B363480068C0F30E0048F68F71F8
:1003300008406049086001F0E9FD5E4909684BF634
:10034000BF7201EA02005C49098801F4805109B1D9
:1003500080F480505849098800E056E001F40051CB
:1003600009B180F400505549098801F0100109B124
:1003700080F010005149098801F0200109B180F096
:10038000200081B241F4004141F08001494A1160EE
:10039000BDE7FFE7BDF8000000F40040002878D07A
:1003A00044480068C0F30E0048F68F710840414988
:1003B000086001F0ADF83F4909684BF6BF7201EAE9
:1003C00002003D49098801F4805109B180F4805050
:1003D0003949098801F4005109B180F400503749C6
:1003E000098801F0100109B180F010003349098833
:1003F00001F0200109B180F0200081B241F40041F8
:1004000041F080012B4A116081E7294800782C498E
:1004100001EB8000D0F8000C80B20090BDF8000025
:1004200000F40040C0B12248007801EB8000D0F811
:10043000000CC0F30E0048F68F7108401C49097883
:100440001F4A02EB8101C1F8000C19490978491EC5
:100450001C4A52F821008047BDF8000000F08000DF
:10046000B8B113480078164901EB8000D0F8000CB1
:1004700048F60F7108400E490978114A02EB8101D4
:10048000C1F8000C0A490978491E0F4A52F82100A8
:10049000804708484430006880B20449088000F46E
:1004A000004000287FF4D2AE00BF30E73C010020BE
:1004B00024010020005C0040380100203A010020A7
:1004C00000500040640100204801002010B51E4883
:1004D0000068012836D11D4800681D4909888842F6
:1004E00030D91C4800681C4908601A48006818493F
:1004F00009880844174908601849174A126888187B
:1005000013490A88C02102F05BFA114801880120D2
:1005100001F0F0FB012001F01BFC0C4800680C49C5
:100520000988401A0C49096888420BD100200A4901
:10053000086008490860044908604FF4F0710748F2
:10054000FFF719FE10BD00002C0000201C00002049
:10055000200000202800002024000020600200204D
:100560000B4A02EB8001D1F8001C01F4804171B10B
:1005700002EB8001D1F8001C48F68F7211404CF25A
:1005800080021143024B03EB8002C2F8001C70474B
:10059000005000400B4A02EB8001D1F8001C01F032
:1005A000400171B102EB8001D1F8001C48F68F7256
:1005B000114048F2C0021143024B03EB8002C2F823
:1005C000001C704700500040084A02EB8001D1F83F
:1005D000001C48F68F62114048F280021143034B21
:1005E00003EB8002C2F8001C70470000005000407E
:1005F0002DE9F0472848006800F110052E882648AC
:100600000068077AD6B9042F18D124480078012849
:100610000FD100212248006880B2801C214A42F894
:10062000101030202049088000BF00201B490870AE
:1006300003E0072710201C49088027E0AC88A64269
:1006400001D8042000E002200746B44200D9344615
:10065000A0B2A96888478046002000F0BFFB814611
:10066000A2B24946404602F0ABF9A1B2002001F027
:1006700041FB2888001B288068882044688030203F
:100680000949088000020949088000BF0249096839
:100690000F72BDE8F087000028010020040100204F
:1006A000505C0040006000403A010020380100200A
:1006B0002DE9F0413048006800F110042688A06858
:1006C000C0B1BEB1A588B54200D93546A8B2A1686F
:1006D000884707462088401B208060882844608027
:1006E000002000F059FB8046AAB24146384600F08F
:1006F00037FF00BF208850B14FF440501F49088099
:100700000021084601F0F6FA30201D4908802088B3
:10071000A188884204DB032017490968087228E091
:100720002088002804DD052013490968087220E0AC
:100730002088F0B906201049096808721149096833
:10074000886880470C480068007A082806D1400273
:100750000A49088010200A4908800AE000210A4856
:10076000006880B2801C094A42F810103020044909
:100770000880BDE8F0810000280100203801002039
:100780003A0100202C010020505C00400060004035
:100790002DE9F84F9B48006845780027BA46062D9A
:1007A0001BD198480068007800F07F00002813D122
:1007B000944909688878012803D193490968CF6969
:1007C0000AE0022803D1904909680F6A04E003286F
:1007D00002D18D4909684F6A94E0002D64D189489F
:1007E0000068408800285FD186480068C0880228D9
:1007F0005AD1844800680079002855D181480068A2
:10080000007800F07F0028B97E480068808808B929
:100810007E4F77E07B480068007800F07F00012879
:1008200010D1784909684879774909688A690021AF
:100830009047002866D173480068807A002861D00C
:10084000724F5FE06F480068007800F07F00022878
:1008500058D16C480068407900F00F06694800687C
:10086000407900F0700967480068407900F0800026
:1008700038B1674901EB8600D0F8000C00F0300871
:1008800006E0634901EB8600D0F8000C00F4405804
:1008900060480078B04235D9B9F1000F32D1B8F1D3
:1008A000000F2FD0594F2DE0082D07D15548006873
:1008B000007800F07F0028BB574F23E00A2D21D19C
:1008C00050480068007800F07F0001281AD14D4898
:1008D0000068807AB0B14B480068408890B94948B8
:1008E0000068007970B947480068C088012809D1BC
:1008F000444909684879444909688A690021904750
:1009000000B9464F57B13F480068A0F812A03D48D3
:10091000006887610020B84700240FE0394A126858
:100920005078394A1268116988470446032C05D16A
:100930000920344909680872BDE8F88F3148006819
:10094000008A4FF6FF71884204D109202D490968B9
:100950000872F1E7022C03D02A480068008A20B907
:100960000820284909680872E6E7264800680078E8
:1009700000F08000E0B323480068C0880090214860
:100980000068008A0099884204D91E4900980968C5
:10099000088223E01B480068008A1A490968C98850
:1009A00088421BDA17480068008A1749096891F8DD
:1009B0002C10884203DA0020194908700EE0114813
:1009C0000068008A1049096891F82C1090FBF1F238
:1009D00001FB120010B90120114908700A48006893
:1009E00090F82C10074800688182FFF701FE07E0AD
:1009F000FFE70320034909680872000309490880DA
:100A000000BF99E7280100202C010020AD2100083B
:100A1000005000408C010020312100088121000895
:100A200004010020380100207047704710B50120F4
:100A300007490860032000F0BFF90649086008462E
:100A4000008882B24FF48871034800F089FD10BD20
:100A50001800002020010020F400002010B508201C
:100A600000F038F800B31148007878B91020104928
:100A7000486108200F49086001200C4908700820CF
:100A80000C49086010200A4908610AE0074800780C
:100A9000012806D108200749091D086002200349E2
:100AA0000870082000F008F810BD0000DF000020EA
:100AB0000010014010140140014908607047000017
:100AC00014040140024909680143014A116070475A
:100AD00010040140014600200022074B1B6803EA76
:100AE0000102054B14331B680B4013B10AB10120FE
:100AF00000E000207047000000040140002123496D
:100B00008279002A3AD00A46126803689A430B4653
:100B10001A600A1D126803689A430B1D1A60027955
:100B200011440A6803681A430A60184A08321268B6
:100B300003689A43154B08331A601A1D126803683C
:100B40009A43124B0C331A604279102A0ED11A1FA5
:100B5000126803681A430D4B08331A601A1D126895
:100B600003681A43094B0C331A600DE007494279B8
:100B700011440A6803681A430A6005E002791144C7
:100B80000A6803689A430A60704700000004014045
:100B900008B501213C2000F055FD10208DF8030020
:100BA00003208DF802000820ADF8000069461A48BD
:100BB00000F05AF81020ADF800006946174800F020
:100BC00053F80420ADF800006946134800F04CF8D3
:100BD0002020ADF800006946104800F045F80820D4
:100BE000ADF8000069460E4800F03EF84FF47F4033
:100BF000ADF8000004208DF8030003208DF80200FA
:100C00006946084800F030F80820034914310860AC
:100C100003491031086008BD000801400010014080
:100C200000140140000C014030B500228B071C0F5E
:100C30000F2303FA04F20B4B8C1053F82430934328
:100C4000084C8D1044F8253023468C1053F824307E
:100C50008C07240F00FA04F42343024C8D1044F84F
:100C6000253030BD080001402DE9F0410246002545
:100C70000026002000230024002791F803C00CF078
:100C80000F0591F803C00CF0100CBCF1000F03D05D
:100C900091F802C04CEA050591F800C0BCF1000FC4
:100CA00031D0146800202BE04FF0010C0CFA00F357
:100CB000B1F800C00CEA03069E4220D183004FF039
:100CC0000F0C0CFA03F7BC4305FA03FC4CEA0404CE
:100CD00091F803C0BCF1280F06D14FF0010C0CFABB
:100CE00000FCC2F814C00AE091F803C0BCF1480F40
:100CF00005D14FF0010C0CFA00FCC2F810C0401CEA
:100D00000828D1D31460B1F800C0BCF1FF0F34DD66
:100D1000546800202EE000F1080C4FF0010808FA9A
:100D20000CF3B1F800C00CEA03069E4221D1830007
:100D30004FF00F0C0CFA03F7BC4305FA03FC4CEA26
:100D4000040491F803C0BCF1280F05D100F1080C90
:100D500008FA0CF8C2F8148091F803C0BCF1480FEF
:100D600007D100F1080C4FF0010808FA0CF8C2F89E
:100D70001080401C0828CED35460BDE8F0810246A4
:100D8000002093680B400BB1012000E00020704769
:100D9000416170470161704701460548006880B2B3
:100DA00000EBC100001D034A32F8100080B270470A
:100DB000505C00400060004001460648006880B278
:100DC00000EBC100801D044A32F81000C0F3090096
:100DD00070470000505C004000600040014605483C
:100DE000006880B200EBC100034A32F8100080B204
:100DF00070470000505C00400060004070B50A4839
:100E00000468001D0568001D0668344454B10822BA
:100E10000649204600F076F804220449103128469D
:100E200000F070F870BD0000E8F7FF1F0701002018
:100E300000BFFEE72DE9F8438046894616461F4667
:100E400010A00068009010480068052803D1022116
:100E50006846FFF7E0F9002410E000250AE0E9B257
:100E60000A4800F065FE00BF094800680128FBD071
:100E7000681C85B2BD42F2DB601C84B2B442ECDB7C
:100E8000BDE8F88301010000140200206002002088
:100E90002C00002010B518480068047A022C01D0FC
:100EA000042C05D1FFF7A4FB13480068047A1CE06A
:100EB000062C19D110480068407805280ED10E483C
:100EC0000068007800F07F0040B90B490968C878D5
:100ED00000F066FE09490968086A80470849096800
:100EE00088688047082400E00824034909680C72D8
:100EF00000F04CFB10BD0000280100203401002050
:100F00002C01002030B50B46002100BF16E00A245A
:100F1000B4EB107F05D9302404EB107403F81140B2
:100F200005E0412404EB10740A3C03F81140000171
:100F300000254C00641C1D554C1CE1B29142E6DBBF
:100F400030BD00BFFEE770477047000070B500215C
:100F500000230F22C47804B3154C246804F4E06421
:100F6000C4F5E064210AC1F10403CA40447804FADC
:100F700003F184781440214309010E4C0678A155F1
:100F8000047804F01F050124AC4005786D11AD0014
:100F900005F1E025C5F8004109E0047804F01F05DB
:100FA0000124AC40044D0678761145F8264070BD0A
:100FB0000CED00E000E400E080E100E002490143C4
:100FC000024A1160704700000000FA050CED00E0D5
:100FD00070B50226484800684478474800680078A1
:100FE00000F07F00002847D1092C03D101F05EF901
:100FF000064662E0052C14D13F480068C0787F287F
:101000000BDC3D480068807838B93B480068808830
:1010100018B939480068807A08B1082568E00026C8
:101020004BE0032C0ED134480068C078012807D16A
:1010300031480068808818B901F05CF906463CE048
:1010400002263AE0012C38D12B480068C0780128EC
:1010500010D129480068808860B927480068407A24
:1010600000F0200030B100202449086000F0AAFF01
:10107000064622E0022620E01F480068007800F0C3
:101080007F00012805D10B2C17D101F0AFF90646DE
:1010900013E019480068007800F07F0002280BD1A7
:1010A000012C03D100F08EFF064606E0032C04D18C
:1010B00001F034F9064600E002264EB1E0B2104AD3
:1010C0001268516988470646032E01D109250FE0B1
:1010D0000EB108250CE0062500210A48006880B200
:1010E000801C094A42F8101030200849088000BFCF
:1010F000014909680D7270BD28010020000100201F
:101100002C010020505C0040006000403A010020AB
:1011100070B50646301D092821D2DFE800F01D1AFF
:101120001714110E0B080500482406251AE0382470
:10113000062517E02824062514E01824062511E0CA
:10114000082406250EE008240E250BE018240E25A1
:1011500008E028240E2505E038240E2502E000BF13
:1011600000BF00BF00BF21469B2000F0B9FC29460C
:10117000AB2000F0B5FC70BD10B5044614F1040FAF
:101180000EDB042C0CDC201D0007010EA72000F054
:10119000A7FC201D0007010EA82000F0A1FC01E023
:1011A00000BF00BF10BD10B5044614F1040F0BDBE7
:1011B000042C09DCC4F104003022A2EB8000C1B28F
:1011C0009C2000F08DFC01E000BF00BF10BD10B5F9
:1011D00000F04AFBFFF7DCFC01F00EFC10BD000044
:1011E00038B50024002000908021122000F078FC07
:1011F00008B9002038BD0B220121684600F070FBC1
:1012000008B90020F6E79DF80000212814D1002439
:101210000DE00B4A02EB44025178094A12F814001F
:1012200000F05EFC08B90020E4E7601C84B20548C9
:1012300000788442EDDB01E00020DBE70120D9E704
:1012400044000020DE00002010B50446062C79D2B0
:10125000DFE804F003142D465F79FF21132000F02E
:101260003FFC65210E2000F03BFC00212D2000F00A
:1012700037FC00212E2000F033FC70E0FD2113200C
:1012800000F02EFC5A21012000F02AFC5C210220F3
:1012900000F026FC65210E2000F022FC00212D200C
:1012A00000F01EFC00212E2000F01AFC57E0FD216A
:1012B000132000F015FC5821012000F011FC6021E2
:1012C000022000F00DFC65210E2000F009FC002139
:1012D0002D2000F005FC00212E2000F001FC3EE056
:1012E000FD21132000F0FCFB8421012000F0F8FB1D
:1012F0004C21022000F0F4FB65210E2000F0F0FBF1
:1013000000212D2000F0ECFB00212E2000F0E8FB56
:1013100025E0FD21132000F0E3FB9621012000F0E1
:10132000DFFB4021022000F0DBFB65210E2000F0F6
:10133000D7FB00212D2000F0D3FB00212E2000F050
:10134000CFFB0CE008E0FF21132000F0C9FBE521F2
:101350000E2000F0C5FB02E000BF00BF00BF00BFD1
:1013600010BD10B50446072C58D2DFE804F0041174
:101370001E2B384552000621A62000F0B1FB80212B
:10138000602000F0ADFB8021612000F0A9FB48E067
:101390002621A62000F0A4FB8021602000F0A0FB05
:1013A0008021612000F09CFB3BE01E21A62000F084
:1013B00097FBA021602000F093FB4021612000F00A
:1013C0008FFB2EE01E21A62000F08AFB402160202A
:1013D00000F086FBA021612000F082FB21E01E21AD
:1013E000A62000F07DFB8021602000F079FBC02169
:1013F000612000F075FB14E01E21A62000F070FBB8
:101400006021084600F06CFB6021612000F068FB61
:1014100007E04621A62000F063FB02E000BF00BF0A
:1014200000BF00BF10BD2DE9F84306460F46144625
:101430001D46DDF82080B8F1000F04D146211220AE
:1014400000F04EFB03E00621122000F049FB1722BA
:101450000121684600F044FA9DF8000000EBA60068
:1014600000F0FF094946172000F03AFBC4F387015A
:10147000182000F035FB19220121684600F030FAEF
:101480009DF8000000EB670000F0FF0949461920B5
:1014900000F026FBC5F347011A2000F021FB3222A1
:1014A0000121684600F01CFA04F003009DF80010CA
:1014B000084305F0010140EA810006F0030140EA1B
:1014C000011007F0010140EA81194946322000F07D
:1014D00007FBC4F38701292000F002FBC5F3470195
:1014E0002C2000F0FDFA2A220121684600F0F8F9CC
:1014F00004F003009DF80010084305F0010140EAE4
:10150000810949462A2000F0EBFABDE8F883000083
:1015100010B511480068047A022C01D0042C01D1C6
:10152000082412E0032C01D0052C05D1FFF7C0F8E8
:1015300009480068047A08E0072C05D107490968C2
:10154000C8688047082400E00824034909680C7231
:1015500000F01CF810BD0000280100202C01002024
:10156000F0B5561C7510074E06EB41042B4605E0FE
:1015700034F8047B20F8017B401C5B1E002BF7D164
:10158000F0BD0000006000407047000010B50D483D
:1015900090F82C10002000F03DFB0B480068007A0A
:1015A000082805D140020949088010200849088010
:1015B00005480068007A092801D1012010BD0020EB
:1015C000FCE70000900100202801002038010020E5
:1015D0003A01002010B5012001F0A6F801240F48BF
:1015E000046000200E490880084600880B49086006
:1015F00000BF0A48001D006800F480600128F8D090
:10160000002000F0D1FB4FF4E05005490880084667
:10161000008802490860002010BD0000405C0040C6
:101620003201002029B1064AD2690243044BDA6133
:1016300004E0034AD2698243014BDA61704700003B
:101640000010024029B1064A92690243044B9A6194
:1016500004E0034A92698243014B9A61704700009B
:101660000010024030B500210022002400232D4D3F
:101670006D6805F00C0121B1042905D0082923D19A
:1016800005E0294D056022E0274D05601FE0254D4E
:101690006D6805F47012234D6D6805F480340225E1
:1016A00005EB92421CB9214D554305600BE01D4DE1
:1016B0006D6805F400351DB11C4D5543056002E011
:1016C000194D5543056002E0174D056000BF00BF8E
:1016D000144D6D6805F0F0010909154D6B5C056846
:1016E000DD4045600F4D6D6805F4E061090A104D5D
:1016F0006B5C4568DD4085600A4D6D6805F460519E
:10170000C90A0B4D6B5C4568DD40C560054D6D68D1
:1017100005F44041890B074D6B5CC568B5FBF3F5DB
:10172000056130BD0010024000127A0000093D0042
:1017300000000020100000200149086070470000F0
:10174000D800424210B50446072C01D02E48047040
:101750002D48007808284ED2DFE800F004111A2046
:101760002B384E4F2948006828B900F053F806205E
:101770002549087002E005202349087041E000F087
:1017800049F804202049087001202049086038E009
:1017900002201D4948700320087032E01A48407842
:1017A000401E194948700846407808B9042008705E
:1017B00027E01748006883B243F010031448036021
:1017C0000520114908700A2048701AE00E48407838
:1017D000401E0D4948700846407858B90C480068CA
:1017E00083B223F010030A4803600620087000202B
:1017F0000649086005E000BF00BF062002490870E6
:1018000000BF00BF10BD0000190200201C02002014
:10181000405C00400549096888B220F00400034993
:1018200008604FF43F41014A11607047405C00403E
:1018300010B540210B48FFF7ABFA00F071F9802199
:101840000848FFF7A5FA00F06BF940210548FFF7BB
:10185000A1FA00F065F940210248FFF799FA00F07B
:101860005FF910BD0010014008B501211020FFF7FD
:10187000E9FE4020ADF8000003208DF8020014209E
:101880008DF8030069460748FFF7EEF901211020A3
:10189000FFF7D8FE8020ADF8000069460148FFF749
:1018A000E3F908BD0010014010B540210B48FFF7D7
:1018B0006FFA00F035F980210848FFF76BFA00F065
:1018C0002FF940210548FFF765FA00F029F940217A
:1018D0000248FFF75DFA00F023F910BD0010014047
:1018E00070B505460C46164600F08EF808B9002083
:1018F00070BD422000F05CF800F0CCF818B900F0A0
:10190000ADF80020F4E7304600F052F800F0C2F8DD
:1019100000F0A4F800F078F808B90020E8E74320C8
:1019200000F046F800F0B6F818B900F097F800207B
:10193000DEE70CE000F012F82870012C02D1FFF76E
:10194000B3FF01E0FFF774FF6D1C601E84B2002C32
:10195000F0D100F083F80120CAE7000070B5082537
:10196000002480211148FFF715FA14E06006040EE8
:1019700040210E48FFF70CFA00F0D2F840210B4846
:10198000FFF708FA00F0CCF880210848FFF7F7F9D4
:1019900008B144F00104281EA5F10101CDB2E5D142
:1019A00040210248FFF7F4F9204670BD00100140C5
:1019B00070B5044608251BE040211248FFF7E8F9FE
:1019C00000F0AEF804F0800020B180210D48FFF750
:1019D000E1F903E080210B48FFF7DAF96006040E15
:1019E00000F09EF840210748FFF7D4F900F098F87E
:1019F000281EA5F10101CDB2DED140210148FFF73B
:101A0000C7F970BD0010014010B580211248FFF7E2
:101A1000C1F940211048FFF7BDF900F081F880219D
:101A20000D48FFF7ACF908B9002010BD80210A4825
:101A3000FFF7AEF900F074F880210748FFF79FF92F
:101A400008B10020F1E780210348FFF7A1F900F079
:101A500067F80120E9E700000010014010B54021BF
:101A60000B48FFF795F900F05BF880210848FFF775
:101A70008FF900F055F840210548FFF78BF900F089
:101A80004FF880210248FFF785F900F049F810BDB2
:101A90000010014010B540211048FFF779F900F01F
:101AA0003FF880210D48FFF775F900F039F8402123
:101AB0000A48FFF76FF900F033F880210748FFF775
:101AC0005EF928B140210548FFF762F9002010BDFA
:101AD00040210248FFF75CF90120F8E700100140BF
:101AE00070B504460D46FFF78FFF08B9002070BDA2
:101AF0004220FFF75DFFFFF7CDFF18B9FFF7AEFFFC
:101B00000020F4E7E0B2FFF753FFFFF7C3FF2846DA
:101B1000FFF74EFFFFF7BEFFFFF7A0FF0120E6E74C
:101B20004FF4C87001E0411E88B20028FBD1704715
:101B300020220E4B5A610E4A1268C2F3072200F8A7
:101B4000112020221A615A61094A1268C2F3072241
:101B5000012303EB4103C2542022044B1A61EF29F5
:101B600002D10122034B1A607047000000100140AF
:101B7000080C01402C00002010B50348006805281F
:101B800001D1FEF7A3FC10BD140200207047000035
:101B90004FF6F8710140014A11607047505C0040F7
:101BA00030B501460F4B1A78002014E003060E4CA6
:101BB00004EB9353D3F8003C48F68F74234048F26B
:101BC00080042343C4B223430406074D05EB945419
:101BD000C4F8003C401C9042E8D341F08003034C21
:101BE000236030BD8C010020005000404C5C004060
:101BF00010B54A105300054A126892B202EBC002B7
:101C0000121D034C44F8123010BD0000505C00401F
:101C10000060004010B502460F48006880B200EB3B
:101C2000C200801D0D4C04EB40033E290BDD481122
:101C300001F01F040CB9441EA0B24FF4004444EA62
:101C400080241C6007E0481001F001040CB1441C22
:101C5000A0B284021C6010BD505C004000600040D7
:101C600030B50E4C04EB8003D3F8003C4BF68F7478
:101C700003EA040201F480530BB182F4805201F4B0
:101C800000530BB182F4005242F4004343F080034E
:101C9000024D05EB8004C4F8003C30BD005000400C
:101CA00010B50B4B03EB8002D2F8002C4BF68F7370
:101CB00002EA030181F4805181F4005141F40042B1
:101CC00042F08002024C04EB8003C3F8002C10BDEC
:101CD0000050004010B54A105200044B1B689BB2E4
:101CE00003EBC003024C44F8132010BD505C0040CD
:101CF00000600040044A126892B202EBC002921CDB
:101D0000024B43F812107047505C004000600040E6
:101D100030B50E4C04EB8003D3F8003C48F6BF749A
:101D200003EA040201F010030BB182F0100201F08B
:101D300020030BB182F0200242F4004343F0800301
:101D4000024D05EB8004C4F8003C30BD005000405B
:101D500010B50B4B03EB8002D2F8002C48F6BF7392
:101D600002EA030181F0100181F0200141F40042F8
:101D700042F08002024C04EB8003C3F8002C10BD3B
:101D80000050004010B5074B03EB8002D2F8002C46
:101D900048F68F131A400A43024C04EB8003C3F841
:101DA000002C10BD00500040014908607047000041
:101DB000445C004010B500F001F810BD0CB50020E7
:101DC000019000903348006840F480303149086049
:101DD00000BF3048006800F4003000900198401CBB
:101DE0000190009818B90198B0F5A06FF1D1294879
:101DF000006800F4003010B10120009001E00020E4
:101E000000900098012843D12348006840F010005A
:101E1000214908600846006820F003000860084671
:101E2000006840F0020008601A484068194948609C
:101E30000846406848600846406840F48060486052
:101E40000846406820F47C1048600846406840F42A
:101E5000E81048600846006840F08070086000BFE5
:101E60000C48006800F000700028F9D0094840686C
:101E700020F00300074948600846406840F002002F
:101E8000486000BF0348406800F00C000828F9D102
:101E90000CBD0000001002400020024008B50121E6
:101EA0000420FFF7CFFB4FF4C050ADF80000032033
:101EB0008DF8020018208DF8030069460C48FEF7E3
:101EC000D3FE01217C20FFF7BDFB4020ADF80000D0
:101ED00003208DF8020014208DF8030069460548A0
:101EE000FEF7C2FE01212020FFF7ACFB08BD000079
:101EF000000801400014014010B50020FFF71CFC51
:101F00000121C805FFF78EFB10BD000038B5012484
:101F10002948006880B2001D284931F8100080B2BD
:101F200001EB4000009026480068007A092832D072
:101F3000009800782249096808700098401C0090B9
:101F4000009800781E49096848700098401C00906D
:101F5000009800EB44000090009931F8020B0091CA
:101F6000FEF753F9164909684880009800EB4400D1
:101F70000090009931F8020B0091FEF746F91049E4
:101F800009688880009800EB440000900098008861
:101F90000B490968C8800120094909680872084886
:101FA0000068C08810B9FFF713F801E0FEF7F0FBF6
:101FB000FFF7ECFA38BD0000505C004000600040C4
:101FC000280100202DE9F04754480068007800F00F
:101FD0007F08B8F1000F0AD150480068407A00F03D
:101FE000DF004E49096848720020BDE8F087B8F16B
:101FF000020F7CD149480068408818B947480068FA
:10200000007908B10220F0E7DFF814914348006836
:10201000477927F080052C4640480068407900F059
:10202000800038B13F4901EB8400D0F8000C00F08B
:10203000300606E03B4901EB8400D0F8000C00F4C8
:10204000405699F80000A84204D91EB133480068F0
:10205000807A08B90220C8E707F0800080B13149D2
:1020600001EB8400D0F8000C00F0300010284BD1B8
:10207000E0B2FEF78FFAE0B23021FFF749FE43E00D
:10208000284901EB8400D0F8000C00F44050B0F572
:10209000805F39D1E4B9244A92F82C10E0B2FFF7FE
:1020A000B9FD204A02EB8401D1F8001C4BF68F7277
:1020B00001EA020080F4805080F4005040F40041B6
:1020C00041F08001174B03EB8402C2F8001C1BE0B7
:1020D000E0B2FEF745FA134A02EB8401D1F8001C86
:1020E0004BF68F7201EA020080F4805000E011E0AC
:1020F00080F4005040F4004141F08001094B03EBB3
:102100008402C2F8001C00BF08490968486980477A
:1021100000206AE700BF022067E7000028010020D6
:102120008C0100200050004090010020340100206C
:1021300010B504462CB90120064909680882002020
:1021400010BD0549096808688047024800680A30E0
:10215000F6E70000280100203401002010B50246F7
:1021600006480068438A32B98888C01A034C24683C
:102170002082002010BD08681844FBE728010020D9
:1021800010B504462CB901200649096808820020D0
:1021900010BD0549096888688047024800680C300E
:1021A000F6E70000280100203401002010B50446A5
:1021B0002CB90220394909680882002010BD00208E
:1021C0003749088035480068007800F07F0018BB68
:1021D00032490968487A00F0200131B13049097864
:1021E00041F002012E4A117005E02D49097801F0F5
:1021F000FD012B4A117000F0400131B128490978E6
:1022000041F00101264A117005E02549097801F0E5
:10221000FE01234A11703AE020480068007800F07F
:102220007F00012801D11E48C8E71C4800680078DB
:1022300000F07F00022828D1184A1268517901F075
:102240000F0001F080027AB1164B03EB8002D2F846
:10225000002C02F03002102A16D1114A127842F0F6
:1022600001020F4B1A700FE00E4B03EB8002D2F805
:10227000002C02F44052B2F5805F05D1084A127872
:1022800042F00102064B1A7001E0002096E7064971
:10229000096808698047024890E70000280100208B
:1022A000FC000020005000403401002010B50E4812
:1022B0000068C0780D494978884213DC0A480068F4
:1022C000807878B908480068808858B9064800685E
:1022D000C0780549096888720549096848688047D7
:1022E000002010BD0220FCE7280100208C01002006
:1022F0003401002010B507480068407A40F0200003
:1023000004490968487204490968C869804700207F
:1023100010BD000028010020340100202DE9F0410B
:102320002E480068467926F080073C462B48006816
:10233000407900F0800038B1294901EB8400D0F8E1
:10234000000C00F0300506E0254901EB8400D0F8D0
:10235000000C00F4405523480078A04208D91F48DB
:102360000068408820B91DB11C480068807A10B907
:102370000220BDE8F08106F08000A0B1184A02EB0F
:102380008401D1F8001C48F6BF7201EA020080F017
:10239000100040F4004141F08001114B03EB840236
:1023A000C2F8001C14E00E4A02EB8401D1F8001CB4
:1023B0004BF68F7201EA020080F4805040F4004135
:1023C00041F08001064B03EB8402C2F8001C00BF01
:1023D00005490968886980470020CAE7280100206C
:1023E000005000408C0100203401002010B5174B34
:1023F0001B68D978154B1B685879154B1B689A696F
:102400009047044611480068807AE8B13CB90F480B
:102410000068007918B90D480068807808B102207A
:1024200010BD8CB90B490968C86880470748006827
:10243000407906490968C87204480068C0780349B1
:10244000096808730020EBE70220E9E72801002073
:102450002C0100203401002010B50021204A126810
:1024600090B200BF09E01F4B03EB8102D2F8002CB1
:1024700092B21D4B43F82120491C0829F3D340F4A4
:102480008060174A106040F00100106020F00100E9
:10249000106000BF124A121D126802F48062002A06
:1024A000F8D04FF6FF320E4B1B1D1A60002109E0D9
:1024B0000D4A52F8212092B20A4C04EB8103C3F872
:1024C000002C491C0829F3D340F00800044A10608E
:1024D000126890B240F00400014A106010BD000084
:1024E000405C0040005000406804002010B500F03F
:1024F0004FF800F045F800240CE0084850F824009C
:1025000030B1064850F82400401E044941F8240028
:10251000601CC4B2032CF0DB10BD0000400400209E
:1025200010B51348006840F00100114908600846E2
:102530004068104908400E494860084600680E4946
:1025400008400B4908600846006820F480200860B5
:102550000846406820F4FE0048604FF41F00886081
:10256000FFF728FC4FF000600449086010BD000030
:10257000001002400000FFF8FFFFF6FE08ED00E04B
:1025800002480068401C014908607047E4000020D0
:102590000448006820B103480068401E01490860F3
:1025A00070470000E000002021B1828942F400520F
:1025B000828104E082894DF6FF731A408281704760
:1025C00000B585B001210420FFF73CF80121880304
:1025D000FFF738F84FF40070ADF8100018208DF8B0
:1025E000130003208DF8120004A91348FEF73CFBEA
:1025F0004FF48060ADF8100004208DF8130004A99A
:102600000D48FEF731FB0D4800900020ADF80400A6
:10261000ADF80600ADF80800ADF80C000C20ADF8E0
:102620000A006946064800F00DF801210448FFF74A
:10263000BBFF05B000BD00000008014020A107005D
:10264000003801402DE9F04786B005460E460024CB
:10265000A24600BFA1460027B08900B100BF2F46A7
:102660002C8A4CF6FF700440F08804432C82AC891D
:102670004EF6F3100440B08831890843718908434D
:102680000443AC81AC8A4FF6FF400440B089044358
:10269000AC8201A8FEF7E6FF1F48874202D1DDF8B1
:1026A00010A001E0DDF80CA0A88900F4004040B1C2
:1026B0000AEBCA0000EB0A1031684900B0FBF1F8E0
:1026C00007E00AEBCA0000EB0A1031688900B0FB92
:1026D000F1F86420B8FBF0F004012009642101FB4B
:1026E0001089A88900F4004040B1322000EBC900F5
:1026F000B0FBF1F000F00700044308E0322000EBEB
:1027000009106421B0FBF1F000F00F0004432C81AC
:1027100006B0BDE8F08700000038014010B54FF466
:102720008020FEF7C9F910BD10B5044624B1402140
:102730000448FEF72DFB03E040210248FEF72AFB88
:1027400010BD00000014014010B508480849086099
:1027500002200968087207480749086007480849C5
:102760000860054909680868804710BD4C040020CE
:1027700028010020900100202C010020C001002031
:102780003401002008B54FF4A060FEF717FC1420B8
:102790008DF8000002208DF8010000208DF8020065
:1027A00001208DF803006846FEF7D0FB2A208DF843
:1027B000000001208DF801006846FEF7C7FB08BD48
:1027C00010B588B000246948006869490880084647
:1027D000008800F4007067490988084050B14FF63E
:1027E000FF506249086064480078401C62490870E4
:1027F000FFF7C2F95E48008800F400405D4909888F
:10280000084008B1FDF71EFD5948008800F48060BB
:1028100058490988084030B14FF6FF3053490860E5
:102820005649486880475248008800F40050514992
:102830000988084018B14DF6FF704C4908604C48B3
:10284000008800F480504B490988084030B14EF6AA
:10285000FF70464908600020FEF774FF4448008876
:1028600000F4006043490988084060B1444800789A
:1028700010B1FFF7F1FD02E00220FEF763FF4FF217
:10288000FF703A4908603A48008800F4807039497E
:1028900009880840002866D04FF6FF603349086079
:1028A000081D006800F40040002856D03548006834
:1028B000401C3449086008460068032850D92B485A
:1028C000001F006800F00800002849D12748001FB9
:1028D000006880B22C490860002408E02B4901EB15
:1028E0008400D0F8000C80B24DF82400641C082C41
:1028F000F4D32548006840F00100234908600846E9
:10290000006880B21949091F08601F48006820F05C
:1029100001001D4908600846006880B21349091F7C
:10292000086000BF1148006800F480600028F9D0FA
:102930004FF6FF300D490860002408E05DF82400E0
:1029400080B2124A02EB8401C1F8000C641C082C0E
:10295000F4D300200B49086002E000200949086018
:102960000720FEF7EFFE08B010BD0000445C0040F9
:102970003C010020320100203E0100209001002097
:1029800018020020400100204401002000500040B7
:1029900010B5FFF715FF10BD0020064908604FF481
:1029A0003F4005490880084600880249091F086021
:1029B00000207047445C00403201002000BFFEE769
:1029C000F0B5144604F1010C4FEA6C07DFF824C09F
:1029D0000CEB41033D460AE00678401C90F800C02D
:1029E00046EA0C2223F8022B9B1C401C6D1E002D76
:1029F000F2D1F0BD006000401FB501214120FEF77B
:102A000021FE0820ADF80C0004208DF80F000320F3
:102A10008DF80E0003A91648FEF726F903210220BF
:102A2000FEF702F90820019000208DF808000C2024
:102A30008DF8090001208DF80A0001A8FEF75EF864
:102A40000820FEF73FF84FF4C060FEF7B7FA092000
:102A50008DF8000000208DF8010003208DF80200A1
:102A600001208DF803006846FEF770FA1FBD0000D4
:102A70000010014070B504460025212C08D11248F1
:102A80000068007800F07F0021280ED10F4D0CE087
:102A9000202C0AD10C480068007800F07F00212823
:102AA00000D10B4D20200B4908700DB9022070BDDC
:102AB00005480068856100210348006841820020C4
:102AC000A8470020F3E7000028010020012B0008A0
:102AD000912C00088001002010B5044602492046D0
:102AE000FFF73CFB10BD0000EC01002010B50446D0
:102AF00002492046FFF732FB10BD0000E401002030
:102B0000014629B90820034A126810820020704744
:102B10000148FCE7280100208401002070B505462B
:102B200006480068C478042C01DB002070BD04480E
:102B300000EBC4012846FFF711FBF7E7280100204E
:102B4000F40100200246002901DD02207047012A1D
:102B500001DD0220FAE70020F8E7000001460848FE
:102B60000068007800F07F00212807D1022901D1F8
:102B700000207047222901D10020FAE70220F8E75F
:102B80002801002010B500203449096888723448B3
:102B9000C079324909684872002030490968C87212
:102BA000FEF7F6FF4FF400710020FFF7EBF810215D
:102BB0000020FFF7ADF840210020FFF719F8802131
:102BC0000020FFF787F80020FDF7FEFC254890F86D
:102BD0002C100020FFF71EF80020FFF761F80021FD
:102BE0000120FFF7CFF8C0210120FFF773F8202163
:102BF0000120FFF78DF800210120FFF731F84FF495
:102C0000C0610220FFF7BEF84FF480710220FFF789
:102C100061F800210220FFF723F820210220FFF7AE
:102C200077F800210320FFF7ADF84FF488710320F7
:102C3000FEF7DEFF40210320FEF7ECFF4FF440518A
:102C40000320FFF70DF800210320FFF761F80020B3
:102C5000FEF7A6FF01200449086010BD28010020EE
:102C6000E22D000890010020140200200348817A20
:102C700011B10521024A1160704700004C04002088
:102C8000140200200420014908607047140200204B
:102C9000014629B90820034A1268108200207047B3
:102CA0000148FCE728010020840100200348007847
:102CB000202802D1002001490870704780010020BF
:102CC0007047000010B5FEF799F800200549096823
:102CD0008872FEF77FFCFFF75FFE00200249086064
:102CE00010BD0000280100201402002002E008C8E6
:102CF000121F08C1002AFAD170477047002001E076
:102D000001C1121F002AFBD17047000008B500BFA7
:102D100000BFFFF755FCFFF7C1F8FFF7EDF8FFF72D
:102D200031FDFFF711FDFEF752FAFEF759FA24497B
:102D3000C87CFEF716FB2249C87BFEF785FA2049BE
:102D400091F91000FEF718FA1D4991F91100FEF7EC
:102D5000DFF91B4991F91200FEF725FA1849C87CE2
:102D6000FEF7FFFA16480078154C00902389E28898
:102D7000A1886088FEF757FB0020124908701EE00A
:102D80001048007802281AD100BF04200E490860BC
:102D900020200E494861086104200B49091F086082
:102DA00020200A494861086100BF054C2389E28858
:102DB000A1896089FEF73EF8002002490870DFE72C
:102DC00030000020DF000020140801400010014006
:102DD0001201000202020240830440570002010275
:102DE000030109024300020100C03209040000018E
:102DF0000202010005240010010524010001042441
:102E000002020524060001070582030800FF0904E9
:102E10000100020A00000007050302400000070548
:102E20008102400000040309042603530054004DAE
:102E3000006900630072006F0065006C006500634C
:102E400000740072006F006E00690063007300324E
:102E500003530054004D0033003200200056006937
:102E60000072007400750061006C00200043004F88
:102E7000004D00200050006F007200740020002000
:102E800000000000A42E0008000000202002000026
:102E9000B0010008E02F00082002002068120000A6
:102EA000FC2C0008412D0102030404280A0607082F
:102EB00009020406080114311AE00502153C5440C9
:102EC00001F052031211100C1246173F185019034B
:102ED0001A78321629502C782A100C427F4D09633B
:102EE000E064FF6520661267101413F00D810FC5B2
:102EF000142122FF23012434253C26A12B101E6B14
:102F0000AA13FF695D900A910192019301945F9564
:102F1000539611971A983D995A9A1E9B10329C25E8
:102F2000A765A8659E81A6067E0C7F16802A814E25
:102F30008261836F847B8586868E879788A489AF1C
:102F40008AC58BD78CE88D20A980AA80ACFF331668
:102F5000229923034A001026491347084B144C17A3
:102F600046050CD00EF54D141A03531254124D128F
:102F700033023832132B0A0C1C08490F040A112D96
:102F8000245133C20112081A040713C52C140885F2
:102F90002B1B08AD081AC10413752A1B085D101AF3
:102FA00045041AED0C1AD9041A1D0C41324029446B
:102FB0001A6D280916741A851C13D02D3308121A9D
:102FC000E208324313252E3308041A290832261A40
:102FD0004F0829F913050173201A299241000000B6
:0400000508000131BD
:00000001FF
